:020000040000FA
:10000000F80A0020C1000000F9000000FB00000019
:10001000FFFFFFFFFFFFFFFFFFFFFFFFFFFFFFFFF0
:10002000FFFFFFFFFFFFFFFFFFFFFFFFFD000000DF
:10003000FFFFFFFFFFFFFFFFFF000000B10D00000B
:1000400003010000030100000301000003010000A0
:100050000301000003010000030100000301000090
:1000600003010000FFFFFFFF030100000301000088
:10007000030100000301000003010000FFFFFFFF78
:10008000FFFFFFFF49020000030100000301000021
:10009000030100000301000003010000ED0E000059
:1000A0000301000003010000030100000301000040
:1000B00003010000511600000301000003010000CD
:1000C0001048804710488047104800471048016991
:1000D000002910D1416900290DD1816900290AD177
:1000E000C169002907D1BFF34F8F0A490A48C86088
:1000F000BFF34F8FFEE77047FEE7FEE7FEE7FEE740
:10010000FEE7FEE7CD000000B50D00001D01000078
:100110000003084000ED00E00400FA0503488546AE
:1001200000F032F800480047091F0000F80A0020DC
:1001300001688D464168084730B50B4601460020EE
:100140002022012409E00D46D5409D4205D31D46DD
:100150009540491B2546954040191546521E002DD5
:10016000F1DC30BD03460B439B0703D009E008C90F
:10017000121F08C0042AFAD203E00B780370401C57
:10018000491C521EF9D27047064C0125064E05E067
:10019000E36807CC2B430C3C98471034B442F7D3A8
:1001A000FFF7C0FF90200000B0200000F0B5964699
:1001B0000A461349C000461800230025FF20984036
:1001C0002C46104216D00020012199408C46114641
:1001D000C1406746394206D087000F21B9400D4320
:1001E0007146B9400C43401C0828F0D33068A8433E
:1001F000204330600833361D082BDEDDF0BD0000E3
:100200002020024038B5044655202070881C0D4639
:100210006070002320461946425C491CD218C9B2BE
:10022000D3B20429F8D3D843401C20712A46214672
:10023000002000F009F9694608806019097801700A
:1002400069464978417038BD10B5064900204860BC
:1002500005484168491C41600121017000F06EFBB6
:1002600010BD000000600740280000200422002983
:10027000016801D0114300E09143016070470029FB
:10028000016802D00122114301E0490849000160E0
:100290007047C160704700214160016070470023D2
:1002A00003604360C26081607047F8B515460E4632
:1002B0000746002406E03119384600F007F8002808
:1002C00002D0641CAC42F6D32046F8BD10B50446FB
:1002D000636800202268934209D0A068805C08709F
:1002E0002068E168401CFFF727FF0120216010BD56
:1002F00070B50E460446C16840680025401CFFF7F3
:100300001BFF2068814208D06068A1680E54401C21
:10031000E168FFF711FF61600125284670BD416863
:100320000068814201D1012070470020704710B55C
:1003300001200321002280028903012300F070F8CC
:1003400010BD000070B5184D0446686B4607760F67
:1003500000F02EF815492060330001F0B9FD0814B3
:1003600005070714140E1114606000E06160296A2B
:100370006068052909D3400908E00120C003F3E7BC
:100380007D200002F0E70020EEE7C840A060A96AE7
:100390004903490F072902D0C840E06070BD03211E
:1003A000FFF7CAFEF9E700000080084000127A005B
:1003B0000C490868C869C20F4868400AC007C00FE6
:1003C0000ED00948002A0BD18869C00D0007000F24
:1003D00000D110208969044A4902890F5043C8405E
:1003E000704700000080084000127A001FB54109E4
:1003F0000A4A89008A1800212E2800D10221C0064D
:10040000C00E1268032383401A40C2405418684645
:10041000FFF798FF029804B0E04010BD3880084014
:10042000F0B5084F7C6AFD6A3E6B84438D4396436A
:10043000002B02D004430D4316437C62FD623E63F1
:10044000F0BD000000800840F0B59446002615E09D
:100450008B5D020A5A40140200230A4F08252246E7
:100460005A40120402D55B007B4000E05B00640050
:100470006D1EF4D10002434098B2761C6645E7D366
:10048000F0BD000021100000F0B59446002615E0F4
:100490008B5D020A5A40140200230A4F08252246A7
:1004A0005A40120402D55B007B4000E05B00640010
:1004B0006D1EF4D19AB200025040761C6645E7D317
:1004C00080B2F0BD2110000001218140014841604F
:1004D00081607047404002400121814002488161B3
:1004E000BFF34F8F704700004040024004498969C4
:1004F00001228240114201D0012070470020704744
:10050000404002400122054B82401868012902D078
:100510009043186070471043FBE7000040400240E2
:1005200010B50123084C8340012A02D0206998436A
:1005300006E06069002905D018436061206918430E
:10054000206110BD9843F8E74040024000B50349E0
:1005500008600820C86000F04DF800BD00000840A9
:1005600010B50A4B03218A00D418246AE44384504E
:10057000491EF8D5196BC907C917491C0161196BC8
:100580008907C917491C416110BD000000000840DF
:10059000034BD86019605A6014201861704700003E
:1005A0000000084010B5124910484A6902231A4356
:1005B0004A6114220A6104E00A691207920F032AB1
:1005C00001D0401EF8D28A698C699C438C619103EA
:1005D00001D5022010BD910701D5012010BD0028D2
:1005E00001D0002010BD032010BD0000FFFF0F0050
:1005F0000000084010B5124910484A6902231A4306
:100600004A6114220A6104E00A691207920F032A60
:1006100001D0401EF8D28A698C699C438C61910399
:1006200001D5022010BD910701D5012010BD002881
:1006300001D0002010BD032010BD0000FFFF0F00FF
:1006400000000840002A026801D00A4300E08A4303
:1006500002607047F0B5002425462346CE0706D039
:100660005E001746B7403C430327B7403D43490867
:100670005B1C102BF2D34169A943416141692143BD
:100680004161F0BD002A08D0012A09D082688A435E
:100690008260C2688A43C260704782680A43F7E793
:1006A000C2680A43C26082688A4382607047000061
:1006B00070B51549486AE52210434862032000F0EE
:1006C00099FA124C0519012000F094FA0019451905
:1006D000022000F08FFA00194519002000F08AFA74
:1006E00000194219002081000B78D21ACB781B0622
:1006F000D21A4B7889781B02D21A0904521A401C6C
:100700000428F0D3500870BD008008404E265700E2
:1007100070B50D46114900014418002021214902FD
:1007200001230246FFF77CFE227AE1882079FFF759
:100730003DFDA27BA189A07AFFF738FD29462068FC
:1007400000F008FC01220021206800F04DFC01228D
:100750001146206800F048FC70BD000080200000B9
:10076000F8B5054613481349465D680010310C5A28
:1007700008460D38475DB0000C31085800903046EF
:1007800000F06EFF3A4621463046FFF70FFD28463F
:1007900000F012F8214602220098FFF773FF21466D
:1007A00001220098FFF756FF214601220098FFF72B
:1007B00049FFF8BD4C200000044A4100515A103A4C
:1007C000105C80001C321058416270475C200000B1
:1007D000044A4100515A103A105C80001C321058F3
:1007E000816270475C200000F8B51F4E3068022817
:1007F00038D01E4C00271E4D676060682918401CC9
:1008000060601C48FFF762FD60684028F5D36C8883
:10081000EF70AF70402216490020FFF715FE2978CF
:10082000502903D301224A3932602970C9B20829FC
:1008300001D8844204D046240E48FFF72CFD0CE07A
:100840000120C04300F066FA2B780B4C9B00E35864
:100850006878AA68696898470446064821461038AF
:10086000FFF746FDF8BD0000140000203000002016
:10087000B8050020500100200420000010B511210F
:1008800012480906016012498A68152312045B02A6
:10089000D21842604A6875235B040B3A1A4382609F
:1008A0000522D202C260C968442209010909016116
:1008B000811A0848FFF7F3FC064901222031084657
:1008C00092021038FFF7EBFC10BD0000A4050020D9
:1008D000800108404001002070B5054600F09AFFF5
:1008E00001246407002D01D00F4809E000F058F9F9
:1008F000002816D000F06AF9002812D00A48401FDC
:1009000020600A480460002000F01AFD0848401EDC
:10091000FDD1BFF34F8F08490648C860BFF34F8F22
:10092000FEE7002070BD0000F5FAAA5580E100E066
:10093000801A06000400FA0500ED00E00648418830
:10094000002902D04188491E41808188002902D0B7
:100950008188491E8180704738000020F7B5002447
:100960007D2715460E46FF00321B09480099FFF708
:100970009CFC001984B2B44207D2384600F0C4F996
:1009800028466D1EADB20028EED12046FEBD000007
:10099000D8080020FEB5FF250024013541210902B9
:1009A000280201232246FFF73BFD062204210020F6
:1009B000FFF7FCFB062208210020FFF7F7FB0022CF
:1009C00008211548FFF75EFE14496A008818FFF7F2
:1009D00066FCAE05304600F09BFAE1204002009034
:1009E000684685800481C48044816946304600F0B1
:1009F000B1FA01221146304600F0EEFA0122002140
:100A0000304600F0F1FA01221146304600F0ECFACF
:100A10000349E8030860FEBD00000B40D806002033
:100A200000E100E007498A06106004E01069C00593
:100A300001D5012070470846491E89B20028F5D12A
:100A4000704700001027000030B50D460446002313
:100A500006E0E05CFFF7E6FF002803D05B1C9BB2DA
:100A6000AB42F6D3184630BDF8B520480A270068D7
:100A70001F4C00261F4D012813D007E028780028BE
:100A800010D0012818D002281ED02E706422012117
:100A90006846FFF763FF0028F0D16888002800D17E
:100AA0002E70F8BD684600785528FAD120700120D4
:100AB000A86028706F80E9E768460178A86821542B
:100AC000401CA8600220F4E7FF20F53068806846EB
:100AD0000178A8682154401CA86061788142D5D86B
:100AE00000F0A0F82E706420A880F8BD140000204B
:100AF000400600203800002010B500F0CFF901209A
:100B000000F0ECF911210C48090601600B498A68D4
:100B1000152312045B02D21842604A684B680A3AF5
:100B200012040A3B1A4382600522D202C260C968DD
:100B30000161FFF72FFF10BD2C0600208001084047
:100B400001214907002814D00B4808600B4C4F20A6
:100B5000A07005212046FFF755FB61782046FFF77E
:100B600073FFBFF34F8F07490548C860BFF34F8F2E
:100B7000FEE70148401FE8E7F5FAAA558F06002076
:100B80000400FA0500ED00E00521C902401A012128
:100B90004902884201D201207047002070470000BE
:100BA000152149020868072252078018064A904218
:100BB00005D24868401A75218902884201D3002075
:100BC0007047012070470000014000000520C0026E
:100BD0000168481C09D0064B002003E01A58521C3B
:100BE00004D0001D8842F9D30120704700207047CF
:100BF0000428000070B50025094C80002060012009
:100C0000E06014202061FFF7CDFC002806D11820F9
:100C10002061FFF7C7FC002800D1A568284670BDF9
:100C200000000840FEB5224F224C0520F86000204D
:100C30002546E0704F3D6A78A8181E38417F007F36
:100C40000E02064329460020921EFFF7FDFBA978FD
:100C5000502904D30222184B46391A60A97029463C
:100C6000AD78462201230A2D01D8864202D0A27017
:100C7000E37014E0CE78042201A8491D0096FFF726
:100C800071FA0C490422463902A8FFF76BFA0B4BA4
:100C9000A8001B583046029A01999847A070397BEA
:100CA0000448FFF7AFFA61780248FFF7CDFEFEBDBA
:100CB000380000208F0600201400002024200000AF
:100CC0000EB5E12040020090FF2001306946888087
:100CD0000020C88008814881FFF71AFD0EBD000082
:100CE000F0B5084F7C68BD68FE6884438D43964329
:100CF000002B02D004430D4316437C60BD60FE60B0
:100D0000F0BD00000081084018214843401EFDD27C
:100D1000704700000749002806D00128086906D05E
:100D20004008400008617047002088617047012238
:100D30001043F7E700E000E010B51B48006800280A
:100D400031D000210C20FFF7DDFB184800F0C6F978
:100D50000446012807D1012211460C20FFF7E0FBD1
:100D60000C20FFF7B9FB0C20FFF7C0FB012802D0D5
:100D7000012C09D010E0012C0ED10C4800F072FAC1
:100D8000012801D100F093FA002201210C20FFF785
:100D9000C7FB0C20FFF7A0FB0C20FFF795FB012100
:100DA0000C20FFF7AFFB10BD1000002068000020F2
:100DB00070470000F0B534491020C8603349012065
:100DC00008603348016B40242143016331498A683C
:100DD000272AFCD1416A0322920291434162416871
:100DE0000122D202114341608168C908C907FBD0C2
:100DF0004168C908C900C91C4160416B4907490FD6
:100E00000329FAD1244B1968C908C900491C196083
:100E10000025056241685E15B143416001689F1578
:100E20003943016041681A1511434160816889089E
:100E3000C907FBD0016BA14301630168B94301609D
:100E40000321090681614168314341608168490895
:100E5000C907FBD01968C908C900891C1960056257
:100E60004168C908C900491C4160416B4907490FE5
:100E70000129FAD11868102108431860186809027E
:100E800008431860F0BD000000810840008308405E
:100E90000080084000A106400002084010B5002074
:100EA0000122120401230146FFF7BAFA002000F0E4
:100EB00015F8084C06492046FFF7EBF901212046BA
:100EC000FFF7D4F9012004494004086010BD000078
:100ED0003F9C00000060074000E100E010B50146C3
:100EE0000148FFF7CCF910BD0060074010B50120A4
:100EF0008007C168C90707D00169C90704D0006825
:100F0000C1B20248FFF7F4F910BD0000D808002074
:100F10000021012310B59B070A46984200D1811594
:100F2000094B984201D143151943084B984201D10E
:100F300003151943064B984201D1C0140143012304
:100F40001046FFF7CDFE10BD000004400010004029
:100F50000010044070B504460D46C8888988626850
:100F600008432989184B1A401143084369890843EB
:100F7000606001208007844206D11820FFF736FA0E
:100F80002968FFF7D9F860621048844206D11A2018
:100F9000FFF72CFA2968FFF7CFF860620C4884420B
:100FA00006D11C20FFF722FA2968FFF7C5F8606216
:100FB0000848844206D11E20FFF718FA2968FFF777
:100FC000BBF8606270BD0000FCE0FFFF0000044061
:100FD0000010004000100440002AC26801D00A43FB
:100FE00000E08A43C260704710238B404168002AAA
:100FF00001D0194300E099434160704770B50B4C34
:101000006168A06840224118042000F032FA0546C9
:101010006168A0684018402100F046FB60684019F4
:101020008005800D6060FFF7DFFB70BD5001002080
:101030000449816004498161044941620449C163F2
:1010400070470000A9100000B1100000551000000A
:10105000FD0F000070B504460088114988421EDA71
:10106000FF38A2281BD1E078E588012817D10D4868
:10107000FFF755F9002812D143210A48002202E067
:1010800083685A54491E43688B42F9D980682562A7
:10109000E0610120203420710248FFF7FCF870BDA8
:1010A000210900004001002010B500F0B3FB10BD85
:1010B000C278014601232031212A07D0222A04D1F7
:1010C000054AC261222202620B717047C268123265
:1010D000C2610922F7E70000741F00002030007D84
:1010E0008007C00F70470000F8B5044600F02CFAE6
:1010F0000646800707D5E16C002901D0206D88479E
:10110000022000F0E9F82546F006203500280BDA29
:10111000102000F0E1F8A87C022805D300F020FAA6
:10112000A87CE8740320A874700724D5274680376C
:10113000B86800900020C0432062002028746874C2
:10114000297DFD22114029750421A974A06300F0B6
:1011500003F900F00DFA0020B96800F05CF900987E
:10116000006800F0D9F9616C002901D0A06C8847B3
:10117000042000F0B1F8300706D500F0F9F9E87C5A
:10118000A874082000F0A8F8F0052E4E3CD50020E9
:1011900000F031F90746800509D5204600F03EFAF7
:1011A000204600F006FD7100002000F0EDF8F80682
:1011B00006D5204600F0DCFC1021002000F0E4F809
:1011C000B8071ED50221002000F0DEF8206A401C7E
:1011D00017D02879022814D140220020E16900F0BC
:1011E00048F9E1690918E161216A081A206208D109
:1011F00001202871A16A002903D0E06A88470020F5
:10120000A062304600F068F8122700F09DF900F067
:101210008BF90546401C14D0284600F0ECF8384203
:10122000F3D01221284600F0AFF83046A84000F075
:1012300053F8A8000019816E0029E6D02846884797
:10124000E3E7F8BD0001000010B50549022208607F
:1012500032210A548030806800F07EF910BD000011
:10126000480000202030807C032801D000207047F7
:101270000120704770B5044606462036307D25466D
:10128000C1078035C90FA86800F07AF9B07C03283F
:1012900004D1E968002901D028698847E16B002959
:1012A00004D0B07C062801D1206C884770BD10B5F1
:1012B00000F05EF900F0BAF910BD000004490160C9
:1012C00014314160034981600421C160704700000E
:1012D000981F000018000020014988607047000036
:1012E00000800A400C4910B50846143881600B494B
:1012F000C1607838FFF7E2FF07485838FFF798FEDB
:1013000005489438FFF7A0FF012005494007086011
:10131000012000F015F810BDFC000020390D000080
:1013200000E100E001220549D2020128086802D04C
:101330009043086070471043FBE7000000800A40BC
:1013400004490A150128086802D0904308607047D4
:101350001043FBE700800A4010B500212020012344
:101360000A46FFF7BDFC10BD10B500F067FD01682F
:1013700009221140016010BD10B500F05FFD016849
:1013800024221140016010BD10B50C4600F056FD3E
:10139000846010BD10B500F051FD00690249800560
:1013A000800D401810BD000000A00A4070B5054631
:1013B00000F044FD0446284600F00AF8216989053A
:1013C000890D40180149401870BD000000A00A4076
:1013D00010B500F033FD00690003800D10BD10B59D
:1013E00000F02CFD01690068C90001D5400700E04C
:1013F0008006C00F10BD10B500F020FD4168806868
:10140000084010BD10B50C4600F018FDC068E04063
:10141000C005C00D10BD70B50C46054600F00EFDB0
:10142000E90009194A680261896841600021C943DD
:101430008160284600F035F870BDF8B516460F46B5
:10144000050011D00021FFF7DDFF0446B04209D8A6
:10145000002D28460AD0FFF79DFFE11C8A08394677
:1014600000F0A6FC2046F8BD1021ECE7FFF79EFF38
:10147000F3E7F8B515460E46074600F0DFFC0446D4
:101480000020002D08D02A4631463846FFF7D5FF08
:10149000002801D1002D03D12168102211402160C4
:1014A000F8BD10B500F0CAFC0168192211400160B6
:1014B00010BD10B500F0C2FC0421016010BD10B5D4
:1014C00000F0BCFC4021816002682421914301604E
:1014D00010BDF7B514460746FFF77AFF06463846B3
:1014E00000F0ACFC054600213846FFF78BFFB44204
:1014F00001D8002801D00020FEBD3846FFF74AFF82
:101500000146E01C8208019800F052FCEC600220C9
:1015100028602046FEBD000002494A6802434A6036
:101520007047000000800A40034607210A4618461B
:101530000832D040C00701D048B27047491E002988
:10154000F4DC0020C04370470248416880680840CE
:101550007047000000800A4000B500F045F800BD6B
:10156000024801680C2211430160704700800A4064
:1015700002480168021511400160704700800A406E
:10158000034600B51348016801290CD10021016010
:10159000114801684A06114906D5114A0260816066
:1015A0001868FFF7B9FF00BD0E4A02608160002095
:1015B000FFF7B8FE1868FFF7AFFF0020FFF7C0FE87
:1015C000C8210020401C8842FCD30120FFF7B8FE50
:1015D00000BD00004C00002000800A40FFFFFFFF1C
:1015E0000C0400000C0C0000074901600749416031
:1015F000074981600749C1610021016206494162D2
:1016000002218162704700001D1100000800018066
:101610001202000088000193C800018402490A6890
:10162000026049684160704700A00A4002480168B2
:10163000202211430160704700800A4003490A6874
:101640008B151A430A6008617047000000800A4049
:1016500010B50248FFF748FD10BD000068000020EB
:101660001CB50022009201216B4601921954187892
:101670004904C007C00B88435978C907890B084340
:101680000121890488439978C907490B084301213E
:10169000C9048843D9780123C907090B08430121EC
:1016A0008903FEF7BDFE1CBDFEB50446C91C8E08AD
:1016B0005148514900791039002820D000274E4D5B
:1016C0001AE0B80021582A68514021504A480222A5
:1016D00010380088484980B2FEF7D6FE0090464890
:1016E000022210380068A91C000CFEF7CDFE010490
:1016F000009808187F1C2860B742E2D379E0E069BF
:101700000D4648604868810A3C2001406158A96044
:10171000A968090D01406158E9606968490C0140F8
:101720006158A960A968C90C01406058E860A868C0
:10173000324F2860796A32484160396B8160786A3B
:10174000E52108437862386B4021084338632D480F
:101750000090411E009101D30846FAE72A488068AC
:101760002A494018806D000C00040090FEF7A0FF8D
:10177000019023484168796280683863002133E032
:10178000880084462058009AEB685A40019B4240EA
:101790009A4218D10022D2686B684240AF687B4001
:1017A0005A406A60009A1A4B5040134A10606046D3
:1017B00020581B685840AB686F687B405840A86051
:1017C000012010710FE0124AAB68126842406F6846
:1017D0007B405A40AA600022D26850406A68AB68D9
:1017E0005A4050406860491CB142C9D30020009063
:1017F00001900120FEBD0000600000200080084034
:10180000E80800208813000000A1064001010840FC
:10181000800000200349002008710860103908602A
:10182000704700006000002010B580B2FEF70CFE8B
:10183000044601460448FEF75BFD210A0248FEF714
:1018400057FD4F2010BD00004001002070B5154627
:101850000A2803D00520C002814201D2462070BD73
:101860000C4605E02046FEF771FEFF34FF340234DB
:10187000AC42F7D94F2070BD0020FFF761FDFEE7B5
:10188000F7B588B000270C462E4D3E4668460697B1
:10189000FEF766FE0498012800D1069008980128FA
:1018A0004BD10698002814D00A98001B401C03E076
:1018B000E159491C39D13F1DB842F9D8089801288F
:1018C00007D03AE0214604202A68FEF761FE241D75
:1018D0002D1D0A988442F5D92FE01B48844201D976
:1018E000002000E020680899002918D003291AD0A8
:1018F000069900290BD00521C9020122611A920222
:10190000914204D311496118502900D30020104A94
:10191000B1001268761C5050102E09D00BE02968D7
:10192000814202D107E0401C05D046200BB0F0BD3B
:10193000002600F019F8241D2D1D0A988442CCD9E8
:101940004F20F3E7C4050020FC03F01F000010E067
:101950003000002010B5402202490320FFF7B9FDF6
:101960004F2010BDA40500200548102181614021B1
:10197000C161022101618169C906FCD5704700007F
:1019800040800A404F20704707B5009880B2FEF7AC
:101990005BFD084A00900649D0686B4609181B7821
:1019A0000B706B465B784B70801CD0604F200EBD77
:1019B0008F060020380000204F20704770B5154674
:1019C0000A2803D00520C002814204D2084903201E
:1019D000C870462070BD0C4605E02046FEF7B6FDF7
:1019E000FF34FF340234AC42F7D94F2070BD000001
:1019F0008F060020054C4F20A07005212046FEF7E1
:101A000001FC61782046FFF71FF8FEE78F060020F3
:101A1000F0B589B0064617460C46374D01A8FEF7CB
:101A20009FFD012E09D10020391B491C03E02258DB
:101A3000521C39D1001D8142F9D8002E01D0012E4F
:101A400056D12046FFF7A0F8012E0FD050E0042217
:101A5000294607A8FEF786FB284804220799C2609A
:101A60000460416014210161241D2D1DBC42EED98A
:101A70003EE02348844201D9002000E02068009025
:101A8000002E05D0032E0DD00598012813D01FE09D
:101A90000422294607A8FEF765FB079900988842AB
:101AA00002D123E0401C21D0134904204231C870E8
:101AB000462009B0F0BD0520C0020121201A4902CC
:101AC000884205D30F482018502801D300200090E9
:101AD0000D490948C9684230401804226946FEF79A
:101AE00041FB09480849C068001DC860241D2D1D20
:101AF000BC42BED94F20DCE74D0600200000084064
:101B0000FC03F01F000010E0380000200549044BE2
:101B1000C868F5221A54401CC8604F207047000066
:101B20008F0600203800002070B50F4C4F20A070A9
:101B300021460C226339601DFEF714FB112120465B
:101B4000FEF760FB61782046FEF77EFF074D2146D9
:101B5000E868082220185739FEF704FBE8680830C7
:101B6000E8604F2070BD00008F0600203800002084
:101B700070B504460020FFF72BFC0546206A411C87
:101B800016D0214620310A79012A11D1A84202D368
:101B9000401B206204E005460020206202200871FC
:101BA0002A460020E169FFF794FCE0694019E061F2
:101BB00070BD70B5054600212035297104460162CB
:101BC00000786021084004D0202806D040280BD19E
:101BD00005E0204600F03CF806E0216E00E0616E72
:101BE000002901D0204688472879012805D00228FD
:101BF0000CD00020FFF75DFC70BDE088216A8142B7
:101C000000DD20622046FFF7B3FF70BD00221146C1
:101C10001046FFF75EFC70BD70B5044600202546F7
:101C200020356076002909D0012908D002290ED17B
:101C300020790007000FFFF7D2FB00E0287D207617
:101C400020461830E061022020620120287170BD1A
:101C500070B5018805231B020446CA1A01252034E9
:101C6000994245D01BDC3D4BCA1A994239D009DC58
:101C7000802932D0812932D0822902D10221FFF776
:101C8000CBFF70BD022A2ED0FF3AFF3A921E2CD015
:101C9000022AF6D10122022100F062F870BD012370
:101CA0009B02D11A9A4246D00DDCFF3A813A25D0E8
:101CB000012A3ED0FF3AFF3A022AEFD101463031E5
:101CC0000562C16133E0FF39823944D08029E5D112
:101CD000816D0029E2D0884770BD0021CFE7012146
:101CE000CDE7002202E00022D5E701220021D3E760
:101CF0008078FFF7A3FC257105202AE0C17801292F
:101D00000FD002290FD00329E6D1817842698A4297
:101D1000E2D90269890051580029DDD0C1610978F2
:101D200004E08168FAE7C168C161498801622571F0
:101D300070BD416DCDE7817821742571012506467E
:101D4000803668B2B168FFF766FB6D1C082DF8D3CA
:101D50000620A07470BDC16DBBE70000000100004B
:101D600070B505460126203500290CD0022909D17D
:101D700001790C07240F04D0002A0FD02046FFF76A
:101D80009EFB2E7170BD80780128FBD1287DFD213E
:101D90000840D107890F08432875F2E7806B0028B7
:101DA000EFD12046FFF7E8FA2046FFF7DDFAE8E733
:101DB00030B5830708D000248B0707D00023002C00
:101DC00006D0002B26D032E00124F5E70123F6E708
:101DD000002B01D000231AE0521E1AD403780B7096
:101DE00043784B7083788B70C378CB70001D091DCE
:101DF000F2E7457804782D022C1985782D042C19EA
:101E0000C578001D2D062C199D004C515B1C93427A
:101E1000EFD330BD521EFCD49300C3580B701C0A84
:101E20004C701C0C8C701B0ECB70091DF2E7521EFF
:101E3000EFD49300C458CC50F9E700001421484374
:101E4000014940187047000014800A4010B501286D
:101E500005D0022809D0032812D0462010BD012940
:101E600001D0002004E0002006E0012903D0012079
:101E7000FEF7A2FC02E00120FEF7AAFC4F2010BDF5
:101E8000012901D00220F3E70220F5E70E4910B541
:101E90000B463433002803D0012809D0462010BD5A
:101EA0000A781A54401C491C3428F9D34F2010BD1D
:101EB000064A00201C581168001D10C1116034280A
:101EC000F8D3FFF751FDF1E7C405002030000020F2
:101ED00030B47446641E2578641CAB4200D21D46A3
:101EE000635D5B00E31830BC184702E008C8121FAE
:101EF00008C1002AFAD170477047002001E001C1F3
:101F0000121F002AFBD17047FEF711FAFEF7D8FE28
:101F100014480068C0070DD001204007006812492E
:101F2000884207D0FEF73CFE012803D1152040026D
:101F3000FEF7FEF80D4900204860FEF79FFCFEF713
:101F4000DBFD0020FEF70CFC0120FEF709FC02205F
:101F5000FEF706FCFFF7C6F90548FFF78BF9FEF719
:101F600083FDF9E700010840F5FAAA5510000020AA
:101F7000680000200600FF0901A101150026FF00EE
:101F80000902750895408102150026FF00090375B6
:101F90000895409102C000001201000200000040BC
:101FA000D90401000001010200010000090229001A
:101FB0000101008032090400000203000000092131
:101FC00010012101222200070583034000010705BB
:101FD0000403400000000000040309040E0348004D
:101FE0004F004C00540045004B0000001803550002
:101FF000530042002D0048004900440020004900E1
:10200000410050004D180000811800002918000000
:1020100055190000D9080000791800004D1E000075
:102020008D1E0000BD190000111A00008919000062
:10203000291B0000410B0000F5190000B919000030
:10204000851900000D1B0000851900000202020125
:1020500001010103030101010C01020000400080A5
:10206000020000100200040000000B4000200B40A2
:1020700000400B4000600B4000000000000000002A
:1020800000000440000010000600000020000600D0
:10209000B02000001000002058000000EA1E0000E0
:1020A0000821000068000020900A0000FA1E0000CD
:1020B0000100000000000000D81F0000DC1F00002D
:1020C000EC1F000000000000000000000000000005
:1020D00088A00A400000000000000000000000008E
:1020E00000000000000000000000000001000000EF
:1020F00000000000000000000000000000000000E0
:082100000000000000000000D7
:020000040000FA
:0C2800000600000056312E302E30000083
:020000040000FA
:102A0000700B0020C12A0000F92A0000FB2A0000F8
:102A1000FFFFFFFFFFFFFFFFFFFFFFFFFFFFFFFFC6
:102A2000FFFFFFFFFFFFFFFFFFFFFFFFFD2A00008B
:102A3000FFFFFFFFFFFFFFFFFF2A00000D40000028
:102A4000032B0000253E0000032B0000593300003B
:102A50007D330000032B0000032B0000032B00003C
:102A6000492C0000FFFFFFFF032B0000032B000099
:102A7000032B0000032B0000032B0000FFFFFFFFD0
:102A8000FFFFFFFFAD300000032B0000032B000011
:102A9000032B0000032B0000032B0000032B00007E
:102AA000B5450000032B0000032B0000032B0000A2
:102AB000032B0000454D00007D3C0000032B00006F
:102AC0001048804710488047104800471048016967
:102AD000002910D1416900290DD1816900290AD14D
:102AE000C169002907D1BFF34F8F0A490A48C8605E
:102AF000BFF34F8FFEE77047FEE7FEE7FEE7FEE716
:102B0000FEE7FEE7CD2A00001D4100001D2B00005E
:102B10000003084000ED00E00400FA050348854684
:102B200000F02EF800480047D9520000700B00203A
:102B300030B50B46014600202022012409E00D4655
:102B4000D5409D4205D31D469540491B25469540DD
:102B500040191546521E002DF1DC30BD03460B43D3
:102B60009B0703D009E008C9121F08C0042AFAD243
:102B700003E00B780370401C491C521EF9D27047C9
:102B8000064C0125064E05E0E36807CC2B430C3CC0
:102B900098471034B442F7D3FFF7C4FFA4550000A0
:102BA000C455000010B5042000F09AFB0222202139
:102BB000104600F0B1F802221021104600F0ACF8E7
:102BC000124C012302220021204600F072F800225C
:102BD0000921204600F05FF801220821204600F07C
:102BE0005AF81021204600F071F8012205212046F4
:102BF00000F048F80121204600F017F80121204696
:102C000000F069F80249A015086010BD00000140FD
:102C100000E100E010B50121014800F05CF810BDB2
:102C2000000001408030C1607047802200290168A7
:102C300001D0114300E0914301607047803080680B
:102C4000084000D00120704710B50B4C04212046ED
:102C5000FFF7F4FF01280DD104212046FFF7E2FF22
:102C6000216B064A0905090D5160606B0449000596
:102C7000000D486010BD0000000001401009002058
:102C80001C0900208030002A026801D00A4300E0BD
:102C90008A4302607047930810B59B001818436878
:102CA0009207D20E1F249440A34391400B434360EC
:102CB00010BD5B1E12021B04FF3A013A13430B4383
:102CC0000168802211400B43036070470A06120F0F
:102CD0000267416770470029416F02D0012211430A
:102CE00001E04908490041677047000010B5002223
:102CF000072802D901220838C0B29300054A9A1861
:102D0000136880000F248440A3438140194311605D
:102D100010BD000000200240F0B596460A46134957
:102D2000C000461800230025FF2098402C46104282
:102D300016D00020012199408C461146C1406746BB
:102D4000394206D087000F21B9400D437146B94082
:102D50000C43401C0828F0D33068A843204330605F
:102D60000833361D082BDEDDF0BD000020200240B8
:102D7000F0B5284D04262946CA782F781118C9B213
:102D800001243B0002F096F9074405090F13171EB2
:102D90004400B22806D1022012E0A52838D1032130
:102DA0002970E870F0BDA876E9702E70F0BDE87665
:102DB000E970052004E02877C843401CE87006202D
:102DC0002870F0BD824223D1124812494030C470AD
:102DD000AA7E1148C97E002A04D0012A02D00F2AF7
:102DE00007D015E0022901D9447011E0002141709B
:102DF0000EE0CA290CD1297FFF2904D03A2904D03A
:102E0000242904D004E0847002E0047000E006701D
:102E10002C70F0BDC8080020820000204F207047B1
:102E20000549044BC868F0221A54401CC8604F2062
:102E300070470000A30800205800002070B51C480F
:102E40000168012932D1002606601A4C1A4D26600D
:102E500020682918401C2060184800F075F9206887
:102E60004028F5D36C88EE70AE70402212490020E5
:102E700000F042FA2978062901D8844204D0462479
:102E80000E4800F046F90CE00120C04301F014F8B0
:102E90002B780B4C9B00E3586878AA6869689847C0
:102EA000044606482146103800F060F970BD000065
:102EB000380000204C00002014080020C00300202F
:102EC000DC54000010B544220649074800F025F9FB
:102ED00005490122203108469202103800F01DF900
:102EE00010BD0000D0070020B003002001200949D8
:102EF0004007016008490860002001F09BFD074879
:102F0000401EFDD1BFF34F8F06490548C860BFF38F
:102F10004F8FFEE7F5FAAA5580E100E0801A06001F
:102F20000400FA0500ED00E006484188002902D0BF
:102F30004188491E41808188002902D08188491E2C
:102F40008180704758000020F8B50A27204C0026E1
:102F5000204D07E02878002810D001281DD0022835
:102F600023D02E7001221146684600F0B3FC0028E1
:102F7000F0D16888002800D12E70F8BD684600782E
:102F8000552804D068460078FFF7F2FEF8BD20709F
:102F90000120A86028706F80E4E768460178A8687F
:102FA0002154401CA8600220F4E7FF20F53068801F
:102FB00068460178A8682154401CA8606178814265
:102FC000D0D800F091FE2E706420A880F8BD0000DB
:102FD000540800205800002010B503490120087053
:102FE00000F094FC10BD0000C80800200121490732
:102FF000002814D00B4808600B4C4F20A07005210E
:10300000204600F031F86178204600F0DDFCBFF387
:103010004F8F07490548C860BFF34F8FFEE701484F
:10302000401FE8E7F5FAAA55A30800200400FA05B6
:1030300000ED00E000280FD0084A012803D0022844
:1030400003D046207047116006E00649044BC8686B
:1030500012781A54401CC8604F2070471C00002092
:10306000A30800205800002038B5044655202070E1
:10307000881C0D466070002320461946425C491C9E
:10308000D218C9B2D3B20429F8D3D843401C207156
:103090002A462146002000F02FF969460880601971
:1030A0000978017069464978417038BD10B50B4800
:1030B0000B4A4178491C4170002151604168491C0C
:1030C000416001210170FFF72FFF064801680029C8
:1030D00002D00168491E016010BD000050000020B0
:1030E000006007402000002004220029016801D070
:1030F000114300E09143016070470029016802D04C
:103100000122114301E04908490001607047C16094
:1031100070470021416001607047002303604360F5
:10312000C26081607047F8B515460E460746002418
:1031300006E03119384600F007F8002802D0641C78
:10314000AC42F6D32046F8BD10B5044663680020B3
:103150002268934209D0A068805C08702068E1680A
:10316000401CFFF7E5FC0120216010BD70B50E4644
:103170000446C16840680025401CFFF7D9FC206860
:10318000814208D06068A1680E54401CE168FFF7D6
:10319000CFFC61600125284670BD4168006881420E
:1031A00001D10120704700207047000010B5CF21E9
:1031B00003480902034A012300F07EF810BD000015
:1031C000100C07005001000103498968014201D039
:1031D00001207047002070470080084070B5184DEE
:1031E0000446686B4607760F00F02EF815492060FC
:1031F000330001F05FFF081405070714140E1114C3
:10320000606000E06160296A6068052909D34009AF
:1032100008E00120C003F3E77D200002F0E7002072
:10322000EEE7C840A060A96A4903490F072902D008
:10323000C840E06070BD0321FFF77AFCF9E70000A9
:103240000080084000127A000C490868C869C20F63
:103250004868400AC007C00F0ED00948002A0BD1A9
:103260008869C00D0007000F00D110208969044A49
:103270004902890F5043C840704700000080084051
:1032800000127A001FB541090A4A89008A180021F4
:103290002E2800D10221C006C00E126803238340ED
:1032A0001A40C24054186846FFF798FF029804B0CD
:1032B000E04010BD38800840F0B5084F7C6AFD6AD8
:1032C0003E6B84438D439643002B02D004430D4351
:1032D00016437C62FD623E63F0BD00000080084042
:1032E00004498A6A07231B049A43000402438A6242
:1032F0007047000000800840F0B59446002615E0B5
:103300008B5D020A5A40140200230A4F0825224608
:103310005A40120402D55B007B4000E05B00640071
:103320006D1EF4D10002434098B2761C6645E7D387
:10333000F0BD00002110000010B5092000F058FA7F
:1033400010BD10B5032000F053FA10BD10B50420D5
:1033500000F04EFA10BD000010B500F0B3FC064CB2
:10336000C00501D5012004E000F056FD800701D51D
:103370000220607010BD00002400002010B500F095
:1033800033FB10BD012181400148416081607047DD
:10339000404002400121814002488161BFF34F8FCC
:1033A000704700004040024010B5084A53680124AD
:1033B0008440234207D09268C240D007C00F8842A1
:1033C00001D0012010BD002010BD0000404002408F
:1033D0000449896901228240114201D001207047CD
:1033E00000207047404002400179027AC907120765
:1033F0001143C28800681143024A800080180160AE
:1034000070470000004002400122054B82401868CE
:10341000012902D09043186070471043FBE7000079
:103420004040024010B50123084C8340012A02D0DD
:103430002069984306E06069002905D0184360615F
:1034400020691843206110BD9843F8E740400240CE
:1034500005490128086903D0400040080861704709
:103460000122D2071043F9E74040024000B503496A
:1034700008600820C86000F00FF800BD0000084098
:1034800000B5044A106051600420D06000F004F8D8
:1034900000BD00000000084010B5124910484A69FC
:1034A00002231A434A6114220A6104E00A691207DE
:1034B000920F032A01D0401EF8D28A698C699C437E
:1034C0008C61910301D5022010BD910701D5012027
:1034D00010BD002801D0002010BD032010BD000049
:1034E000FFFF0F000000084010B50121084600F062
:1034F0008DF90021022000F089F9002000F024F964
:10350000012000F021F90021032000F07FF90021C3
:10351000042000F07BF90021052000F077F900215C
:10352000062000F073F90021072000F06FF9002158
:10353000082000F06BF90021092000F067F9002154
:103540000A2000F063F9FF2001492D30088110BDE9
:103550002809002010B5002000F0F6F8012000F046
:10356000F3F8022000F0F0F8082000F0EDF8032056
:1035700000F0EAF8042000F0E7F8052000F0E4F895
:10358000062000F0E1F8072000F0DEF810BD002A68
:10359000026801D00A4300E08A4302607047F0B538
:1035A000002425462346CE0706D05E001746B740C6
:1035B0003C430327B7403D4349085B1C102BF2D323
:1035C0004169A9434161416921434161F0BD002A3C
:1035D000426801D00A4300E08A4342607047002AF3
:1035E00008D0012A09D082688A438260C2688A436F
:1035F000C260704782680A43F7E7C2680A43C26044
:1036000082688A4382607047C069084000D0012008
:103610007047002A01D04162704781627047000004
:10362000F0B54149424D0020404BAC1D4A6808E0CE
:10363000002806D0012807D002281CD003280FD16B
:103640002AE0012169700BE0322A01D3012100E058
:103650000021697000290CD0297849084900297097
:10366000265C69788E4229D086009F597F1C9F5125
:1036700027E00121F3E72F49FF265118F436B14224
:1036800001D3012100E0002169700029297801D0CF
:10369000FD260EE002260FE02749284E5118B142C0
:1036A00001D3012100E0002169700029297802D0AE
:1036B000FB263140D3E704263143D0E700268700BC
:1036C000DE51012811D886009E590A2E08D90029FA
:1036D00001D1012600E00226154FBF1C3E542154A3
:1036E000401CC0B20428A3D3F0BD002904D086003A
:1036F0009E590A2EEFD8F3E7114E3678002E04D0EB
:1037000086009E590A2EE4D8EAE786009F590C4E9F
:103710003689B742E4D30B4FBE42DAD1FF27084EB9
:103720002D373781D5E700001C090020B80800209C
:10373000680000202FF8FFFF0FF5FFFFBB0200001D
:1037400028090020DC050000F8B505461348134998
:10375000465D68000A310C5A08461230475DB000D9
:10376000223908580090304601F008FB3A462146BD
:103770003046FFF7D1FA284600F012F8214602221F
:103780000098FFF72CFF214601220098FFF707FF62
:10379000214601220098FFF7FAFEF8BD38550000D7
:1037A000044A4100515A0A3A105C8000183A1058F5
:1037B0008162704742550000044A4100515A0A3A5A
:1037C000105C8000183A1058416270474255000062
:1037D0000649095C8A000549183989580A6A034B69
:1037E00040000A33185A42400A62704738550000B8
:1037F00010B5054A4100515A0B3A105C3D3A800021
:103800001058FFF701FF10BD68550000F3B50446DE
:103810002E482E49065D60000B310D5AB000483924
:103820000F5883B0304601F0A9FA284829462130C4
:10383000025D3046FFF770FA012C04D029460022C1
:103840003846FFF7CCFE294600223846FFF79FFE98
:10385000294601223846FFF7BAFE0498012832D1E2
:103860000025C1030095019501232A4628460295AB
:10387000FFF722FD154F31462C37385DFFF736FA3A
:10388000385D009068460571C580002C15D0042075
:10389000694608726846FFF7A7FD385D0121FFF70A
:1038A000B3FD385D0A49002809D0012807D0022855
:1038B00007D0032805D0402004E00320E8E71020CB
:1038C00000E02020086005B0F0BD00005D5500005C
:1038D00000E100E0F7B500247D2715460E46FF0005
:1038E000321B09480099FFF71EFC001984B2B4424C
:1038F00007D2384600F0DAFA28466D1EADB200282D
:10390000EED12046FEBD0000A00300203EB50125FB
:1039100000246D0221214902E80101232246FFF71C
:10392000CBFC062210210020FFF7F6F90622202109
:103930000020FFF7F1F9002220211548FFF74FFE84
:1039400014492A464819FFF7E8FB134D284600F0B2
:1039500043FE4B20C0010090A815694688800C8169
:10396000CC804C81284600F05FFE0122114628469B
:1039700000F09CFE01220021284600F0B9FE012241
:103980001146284600F0B4FE0449A80108603EBD77
:1039900000000B40A00100200000044000E100E016
:1039A000084A0749106004E01069C00501D50120EC
:1039B00070470846491E89B20028F5D170470000BB
:1039C000102700000000044030B50D4604460023D7
:1039D00006E0E05CFFF7E4FF002803D05B1C9BB22D
:1039E000AB42F6D3184630BDF8B501210846FFF7C3
:1039F000DBFC0024364D00285FD00120FFF7C2FC1D
:103A0000344802234178012904D00122022907D039
:103A10004270F8BD29783229FBD943708470F8BD13
:103A20002978CD1E022D0AD88578E90809186F0774
:103A3000CE787F0F1546BD40AE43CE700CE00A39FC
:103A400004290DD88678F10809187707CD787F0FFB
:103A50001646BE403543CD708178491C817000E028
:103A6000427081781829DAD3067A41791A4D8E424C
:103A700007D1C6790779BE4203D18679C778BE429D
:103A80000AD001720679C671C6788671F32900D012
:103A900014236B712C7102E02B795B1C2B712B7939
:103AA0006C79A342BBD3C17201798172C178417232
:103AB000017B0029B3D10270F8BD00210120FFF77E
:103AC00073FC0028F8D00120FFF75CFC2C70F8BDD7
:103AD00051000020900100202400002070B5002239
:103AE00002211046FFF718F9474E00220221304606
:103AF000FFF74DFD012211463046FFF78AFD434C8A
:103B0000012202212046FFF784FD012204212046E4
:103B1000FFF77FFD0122150229463046FFF737FDEA
:103B2000002229463046FFF774FD00228021012043
:103B3000FFF7F2F8002229460120FFF7EDF8344E96
:103B4000012280213046FFF722FD0122294630461E
:103B5000FFF71DFD002229461046FFF7DDF8012280
:103B600029463046FFF713FD01221503294610466A
:103B7000FFF7D2F8002229463046FFF708FD012260
:103B800029463046FFF723FD002210210120FFF7D0
:103B9000C3F8002210213046FFF7F9FC0122102162
:103BA0003046FFF714FD002210213046FFF717FDC5
:103BB000002220210120FFF7AFF80022202130460B
:103BC000FFF7E5FC012220213046FFF700FD00222F
:103BD00020213046FFF703FD002210210220FFF7CD
:103BE0009BF8002210212046FFF7D1FC0122102172
:103BF0002046FFF7ECFC002210212046FFF7EFFCE7
:103C000004490020087070BD00000B4000400B40CC
:103C100000200B406E00002010B5124A10780128D9
:103C200002D002280AD113E05078411CC9B2517069
:103C300000280DD0082901D3002050700120FFF783
:103C4000AFFD0220FFF7ACFD0820FFF7A9FD10BD76
:103C50000120FFF7B1FD0220FFF7AEFD0820FFF7BE
:103C6000ABFD10BD8A000020024A1140014302480A
:103C70008160704780FFFF1F00ED00E0704700008B
:103C8000084A074801211160074902E08A68272A8B
:103C900003D0401EFAD10120704700207047000079
:103CA00000366E010083084000A10640044801214F
:103CB000416041680029FCD101680029FCD17047AE
:103CC00000A106400148006880B2704700A106408C
:103CD00004498A150028486801D0104300E0904349
:103CE0004860704700A10640FEB5214F214C0520D9
:103CF000F86000202546E0704F3D6A78A8181E380D
:103D0000417F007F0E02064329460020921EFFF7E6
:103D1000F3FAA978502901D34639A9702946AD781C
:103D2000462201230B2D01D8864202D0A270E370F7
:103D300014E0CE78042201A8491D0096FEF70EFF7C
:103D40000C490422463902A8FEF708FF0A4BA800D6
:103D50001B583046029A01999847A070397B054854
:103D6000FFF782F961780348FFF72EFEFEBD0000E1
:103D700058000020A3080020F4540000F0B5084FBC
:103D80007C68BD68FE6884438D439643002B02D057
:103D900004430D4316437C60BD60FE60F0BD00002F
:103DA0000081084003498A6802239A434000024385
:103DB0008A60704700A0064005490028886802D044
:103DC0000122104301E04008400088607047000075
:103DD00000A0064010B5FFF753FF002800D0FEE713
:103DE000FFF764FF002000F035F82020FFF7ECF922
:103DF0000028FAD00020FFF7D5FF0F20000200F0C6
:103E000039F8FF2000F030F80120FFF7D5FF01213D
:103E1000480200F03BF810BD0148C068C0B27047CE
:103E200000A0064010B5FFF7F7FF084908488A7957
:103E3000002A06D000228A7101220221FFF7E9FB45
:103E400010BD01228A710022F7E700002400002043
:103E500000400B4003498A6820239A4340010243F3
:103E60008A60704700A00640014948607047000022
:103E700000A00640034A9168034B1940014391603A
:103E80007047000000A00640FFF00000044A00292F
:103E9000116901D0014300E08143116170470000C6
:103EA00000A006401920C00200687047182148434E
:103EB000401EFDD2704700000749002806D00128A7
:103EC000086906D0400840000861704700208861FA
:103ED000704701221043F7E700E000E004490222A6
:103EE0000028086901D0104300E090430861704742
:103EF00000E000E0014948617047000000E000E098
:103F0000F1B51926F60233273546BF022846FFF7DA
:103F1000ADFA002800D0641CFF35FF350235BD42E4
:103F2000F4D3354628460099FFF7AAFA002800D0B6
:103F3000641C2D1DBD42F5D304483168814200D078
:103F4000641C361DBE42F8D32046F8BD78563412A4
:103F500010B50F49A1220A705A224A7002788A705D
:103F60004278CA70807808710020487101200B5C8B
:103F70004A79401CD218C0B24A710528F7D3D0B292
:103F8000C043401C48710621014800F099FB10BD58
:103F90007200002010B51B484068002831D0002175
:103FA0000C20FFF731FA184800F012FC04460128F3
:103FB00007D1012211460C20FFF734FA0C20FFF73D
:103FC000E9F90C20FFF704FA012802D0012C09D0EE
:103FD00010E0012C0ED10C4800F0BEFC012801D1EC
:103FE00000F0DFFC002201210C20FFF71BFA0C205F
:103FF000FFF7D0F90C20FFF7C5F901210C20FFF7DE
:1040000003FA10BD10000020B8000020F8B5FFF73B
:1040100003FEFEF789FF384D384A68897D27401C2A
:1040200080B268811178FF000024012907D1298A14
:10403000491C89B22982B94201D32C821470304EB6
:10404000B8420DD36C812889411C2981B42802D340
:104050002C812C4830817089002801D0401E70814D
:104060003078042802D005280AD014E0A889411C21
:10407000A981642815D3AC810020FFF7A9FB10E0CB
:10408000A889411CA981FF21F531884203D3AC8165
:104090000020FFF79DFBA889411CA981B84200D3ED
:1040A000AC81E989481CE8810120642902D31649C2
:1040B000EC810870A978491CC9B2A9700A2919D3E2
:1040C0002870AC70E978491CE970104908701049F3
:1040D000087010490870104908707178012909D1D9
:1040E000F188491C89B2F180B288914202D3747080
:1040F000F480B070F8BD000024000020880000208B
:1041000028090020DC050000780000208C00002039
:10411000850000208700002086000020F0B53B4885
:10412000016B1022114301633A49394A0A618A68D6
:1041300005231205120D1B03D2188A60364A4A6005
:10414000364A0A60364A01211160016B402421433E
:10415000016334498A68272AFCD1416A032292020A
:104160009143416241680122D2021143416081685A
:10417000C908C907FBD04168C908C900C91C41600A
:10418000416B4907490F0329FAD1274B1968C90820
:10419000C900491C19600025056241685E15B143DC
:1041A000416001689F153943016041681A15114348
:1041B000416081688908C907FBD0016BA143016395
:1041C0000168B943016003210906816141683143F7
:1041D000416081684908C907FBD01968C908C9004E
:1041E000891C196005624168C908C900491C416001
:1041F000416B4907490F0129FAD11868102108437A
:1042000018601868090208431860F0BD0080084073
:10421000CA35000000800640D0A701000100A05F61
:104220000083084000A10640000208400B480178C6
:10423000002911D0002101700948FF224068F532A1
:104240000849904201D3192005E0074A904201D362
:10425000642000E032208880704700008700002042
:104260001009002028090020D6060000F8B56B4888
:10427000012601786A48871E00290DD13978012965
:104280000AD00670674D00242878030000F012FF62
:104290000607345184B2C03402210170F2E7787805
:1042A000012804D002280FD003281ED125E00320C6
:1042B000FFF776FA0420FFF773FA0520FFF770FA8C
:1042C0000620FFF76DFA0FE0FFF73BF801280BD14E
:1042D000022028700320FFF76FFA0420FFF760FA2E
:1042E0000520FFF75DFA1AE07C704F4840780028FF
:1042F0001BD00020FFF760FAF8BDFFF727F8012870
:10430000F2D1FFF719F80028EED103202870FFF74B
:1043100047FA0420FFF744FA0520FFF74DFA06207C
:10432000FFF73EFA6C70AC70DEE70020FFF738FA5A
:10433000F8BD787800280DD00320FFF731FA04206B
:10434000FFF72EFA0520FFF72BFA0620FFF728FAD1
:104350007E702C706878002802D1FEF7F2FF44E0EE
:10436000A87801280FD13E70AC700320FFF718FA2F
:104370000420FFF715FA0520FFF712FA0620FFF7D1
:104380000FFA7E702C70284840780028CDD000208D
:10439000FFF712FA7E7039E0787800280DD00320FC
:1043A000FFF7FEF90420FFF7FBF90520FFF7F8F906
:1043B0000620FFF7F5F97E702C70FEF7BDFF01288F
:1043C0000ED10320FFF7F8F90420FFF7E9F90520E3
:1043D000FFF7E6F90620FFF7E3F9022078702C706A
:1043E00068780028BCD1FEF7B1FF0028B8D16E7004
:1043F000EC80B5E70D480178012999D104700C488B
:104400004178007809020818FFF77AFD2C70F8BD92
:10441000054880780128F9D0F8BD00006800002028
:104420008A00002028090020820000208D00002042
:104430008E00002010B51248017800291ED00024FB
:104440000470FFF7EDF8FEF7E5FB00F083F80D4888
:104450000D4943780D4A012B02D144700C80137032
:104460008378012B03D184700C8002231370C378EE
:10447000012B03D1C4700C800320107010BD00000C
:10448000860000206A0000202C0000208900002007
:1044900070B5164C2078002821D0002114482170D6
:1044A0000278012A1BD10170124E427A3378817A48
:1044B000C07A01259A4208D17378994205D10E4BF2
:1044C000CF280FD0FC280BD01D700C4B1B78042B71
:1044D00005D1064B65709B1C1A705970987070BDA1
:1044E000022600E003261E70EFE700008C0000208B
:1044F00090010020100000208900002028090020E1
:1045000070B513480178002921D0002504460570B4
:104510000A342078002805D1FF2020702046093871
:10452000FFF716FD2078012802D0032807D00AE003
:104530000748001DFFF70CFD03202070A5700448FC
:10454000C01DFFF705FD2078042800D1257070BD3F
:104550007800002010B5024800F028FE10BD0000D1
:10456000A400002010B500200122120401230146FE
:10457000FEF7A2FE002000F015F8084C0649204680
:10458000FEF7C5FD01212046FEF7AEFD01200449DE
:104590004004086010BD0000BF120000006007402A
:1045A00000E100E010B501460148FEF7A6FD10BD90
:1045B0000060074010B50648C168C90707D0016907
:1045C000C90704D00068C1B20248FEF7CFFD10BD94
:1045D00000000440A00300200021012310B59B0728
:1045E0000A46984200D18115094B984201D14315E2
:1045F0001943084B984201D103151943064B9842C1
:1046000001D1C014014301231046FFF7B7FB10BDD1
:104610000000044000100040001004400069084001
:1046200000D001207047000070B504460D46C888D0
:104630008988626808432989184B1A401143084346
:1046400069890843606001208007844206D11820F0
:10465000FEF718FE2968FEF76BFA60621048844284
:1046600006D11A20FEF70EFE2968FEF761FA606295
:104670000C48844206D11C20FEF704FE2968FEF790
:1046800057FA60620848844206D11E20FEF7FAFD00
:104690002968FEF74DFA606270BD0000FCE0FFFF84
:1046A000000004400010004000100440002AC268CE
:1046B00001D00A4300E08A43C2607047016070473E
:1046C000F8B50D4606460024084F0BE0FF210131E6
:1046D0003846FFF7A3FF0028F8D0315D3846FFF7D2
:1046E000EDFF641CAC42F1D3F8BD000000000440B3
:1046F00010238B404168002A01D0194300E0994300
:104700004160704710B5094C6168A06840224118AB
:10471000042000F028FA616808188005800D6060A8
:10472000034901200860FEF789FB10BDC00300208B
:104730003800002003498161034941620349C16394
:1047400070470000A54700005147000005470000E2
:1047500070B504460088114988421EDAFF38A22845
:104760001BD1E078E588012817D10D48FEF715FD2B
:10477000002812D143210A48002202E083685A54DB
:10478000491E43688B42F9D980682562E0610120A7
:10479000203420710248FEF7BCFC70BD21090000E6
:1047A000B0030020C278014601232031212A07D01E
:1047B000222A04D1054AC261222202620B7170478B
:1047C000C2681232C2610922F7E700004C540000AF
:1047D0002030007D8007C00F70470000F8B5044608
:1047E00000F02CFA0646800707D5E16C002901D0BD
:1047F000206D8847022000F0E9F82546F0062035B4
:1048000000280BDA102000F0E1F8A87C022805D37C
:1048100000F020FAA87CE8740320A874700724D55F
:1048200027468037B86800900020C04320620020EF
:1048300028746874297DFD22114029750421A9740A
:10484000A06300F003F900F00DFA0020B96800F051
:104850005CF90098006800F0D9F9616C002901D07A
:10486000A06C8847042000F0B1F8300706D500F0AE
:10487000F9F9E87CA874082000F0A8F8F0052E4E9D
:104880003CD5002000F031F90746800509D52046C7
:1048900000F03EFA204600F0C0FA7100002000F05F
:1048A000EDF8F80606D5204600F096FA1021002013
:1048B00000F0E4F8B8071ED50221002000F0DEF871
:1048C000206A401C17D02879022814D140220020E9
:1048D000E16900F048F9E1690918E161216A081A03
:1048E000206208D101202871A16A002903D0E06A62
:1048F00088470020A062304600F068F8122700F0D8
:104900009DF900F08BF90546401C14D0284600F0B4
:10491000ECF83842F3D01221284600F0AFF83046C8
:10492000A84000F053F8A8000019816E0029E6D0D5
:1049300028468847E3E7F8BD0001000010B50549A7
:104940000222086032210A548030806800F07EF92B
:1049500010BD0000B00000202030807C032801D072
:10496000002070470120704770B504460646203687
:10497000307D2546C1078035C90FA86800F07AF957
:10498000B07C032804D1E968002901D02869884750
:10499000E16B002904D0B07C062801D1206C884747
:1049A00070BD10B500F05EF900F0BAF910BD00005E
:1049B0000449016014314160034981600421C160F0
:1049C00070470000705400003C00002001498860DE
:1049D0007047000000800A400C4910B508461438A2
:1049E00081600B49C1607838FFF7E2FF074858380B
:1049F000FFF7A0FE05489438FFF7A0FF0120054906
:104A000040070860012000F015F810BD4C0100209F
:104A1000953F000000E100E001220549D202012893
:104A2000086802D09043086070471043FBE700001D
:104A300000800A4004490A150128086802D0904302
:104A4000086070471043FBE700800A4010B5002162
:104A5000202001230A46FFF791F910BD10B500F0A0
:104A600021FB016809221140016010BD10B500F062
:104A700019FB016824221140016010BD10B50C46DD
:104A800000F010FB846010BD10B500F00BFB006956
:104A900002498005800D401810BD000000A00A40AA
:104AA00070B5054600F0FEFA0446284600F00AF804
:104AB00021698905890D40180149401870BD000021
:104AC00000A00A4010B500F0EDFA00690003800D67
:104AD00010BD10B500F0E6FA01690068C90001D503
:104AE000400700E08006C00F10BD10B500F0DAFAF4
:104AF00041688068084010BD10B50C4600F0D2FA3D
:104B0000C068E040C005C00D10BD70B50C4605463C
:104B100000F0C8FAE90009194A6802618968416031
:104B20000021C9438160284600F035F870BDF8B512
:104B300016460F46050011D00021FFF7DDFF0446A1
:104B4000B04209D8002D28460AD0FFF79DFFE11C8E
:104B50008A08394600F060FA2046F8BD1021ECE7DB
:104B6000FFF79EFFF3E7F8B515460E46074600F03F
:104B700099FA04460020002D08D02A4631463846CE
:104B8000FFF7D5FF002801D1002D03D121681022A5
:104B900011402160F8BD10B500F084FA01681922B7
:104BA0001140016010BD10B500F07CFA04210160D5
:104BB00010BD10B500F076FA402181600268242112
:104BC0009143016010BDF7B514460746FFF77AFF21
:104BD0000646384600F066FA054600213846FFF7DB
:104BE0008BFFB44201D8002801D00020FEBD38461A
:104BF000FFF74AFF0146E01C8208019800F00CFA1A
:104C0000EC60022028602046FEBD000002494A6890
:104C100002434A607047000000800A4003460721B3
:104C20000A4618460832D040C00701D048B2704743
:104C3000491E0029F4DC0020C04370470248416847
:104C4000806808407047000000800A4000B500F00E
:104C500045F800BD024801680C221143016070470D
:104C600000800A4002480168021511400160704747
:104C700000800A40034600B51348016801290CD1A1
:104C800000210160114801684A06114906D5114A00
:104C9000026081601868FFF7B9FF00BD0E4A02602C
:104CA00081600020FFF7B8FE1868FFF7AFFF002013
:104CB000FFF7C0FEC8210020401C8842FCD3012021
:104CC000FFF7B8FE00BD0000B400002000800A40DD
:104CD000FFFFFFFF0C0400000C0C000007490160FF
:104CE00007494160074981600749C16100210162AC
:104CF0000649416202218162704700001D110000D7
:104D0000080001801202000088000193C80001849D
:104D100002490A68026049684160704700A00A4081
:104D200002480168202211430160704700800A4058
:104D300003490A688B151A430A600861704700002E
:104D400000800A4010B50248FFF748FD10BD000082
:104D5000B800002002490148086070470100A05FC8
:104D60000080064002480321017000214170704715
:104D7000820000204F2070474F2070471CB5002252
:104D8000009201216B460192195418784904C0071A
:104D9000C00B88435978C907890B0843012189044E
:104DA00088439978C907490B08430121C9048843FE
:104DB000D9780123C907090B084301218903FEF7AC
:104DC0007BFA1CBD014610B50020902903D10220BA
:104DD000FEF70EFDC0B210BD70B504460020FFF70F
:104DE00071FE0546206A411C16D0214620310A7901
:104DF000012A11D1A84202D3401B206204E00546DB
:104E000000202062022008712A460020E169FFF795
:104E1000DAFEE0694019E06170BD70B50546002119
:104E2000203529710446016200786021084004D0D1
:104E3000202806D040280BD105E0204600F03CF8A1
:104E400006E0216E00E0616E002901D0204688470F
:104E50002879012805D002280CD00020FFF7A3FEF6
:104E600070BDE088216A814200DD20622046FFF7A4
:104E7000B3FF70BD002211461046FFF7A4FE70BDBF
:104E800070B504460020254620356076002909D0FB
:104E9000012908D002290ED120790007000FFFF761
:104EA00018FE00E0287D207620461830E0610220C0
:104EB00020620120287170BD70B5018805231B0296
:104EC0000446CA1A01252034994245D01BDC3D4BCB
:104ED000CA1A994239D009DC802932D0812932D0CE
:104EE000822902D10221FFF7CBFF70BD022A2ED00A
:104EF000FF3AFF3A921E2CD0022AF6D1012202215B
:104F000000F062F870BD01239B02D11A9A4246D08C
:104F10000DDCFF3A813A25D0012A3ED0FF3AFF3A14
:104F2000022AEFD1014630310562C16133E0FF3919
:104F3000823944D08029E5D1816D0029E2D08847AB
:104F400070BD0021CFE70121CDE7002202E0002261
:104F5000D5E701220021D3E78078FFF7E9FE25712C
:104F600005202AE0C17801290FD002290FD003299A
:104F7000E6D1817842698A42E2D9026989005158B2
:104F80000029DDD0C161097804E08168FAE7C168D1
:104F9000C16149880162257170BD416DCDE781789D
:104FA0002174257101250646803668B2B168FFF785
:104FB000ACFD6D1C082DF8D30620A07470BDC16D2A
:104FC000BBE700000001000070B505460126203552
:104FD00000290CD0022909D101790C07240F04D033
:104FE000002A0FD02046FFF7E4FD2E7170BD8078B7
:104FF0000128FBD1287DFD210840D107890F0843F6
:105000002875F2E7806B0028EFD12046FFF72EFDD0
:105010002046FFF723FDE8E730B5830708D00024DA
:105020008B0707D00023002C06D0002B26D032E0BF
:105030000124F5E70123F6E7002B01D000231AE055
:10504000521E1AD403780B7043784B7083788B70A0
:10505000C378CB70001D091DF2E7457804782D0256
:105060002C1985782D042C19C578001D2D062C19B6
:105070009D004C515B1C9342EFD330BD521EFCD4BB
:105080009300C3580B701C0A4C701C0C8C701B0EC8
:10509000CB70091DF2E7521EEFD49300C458CC50D8
:1050A000F9E7000014214843014940187047000007
:1050B00014800A4030B47446641E2578641CAB42E8
:1050C00000D21D46635D5B00E31830BC184702E068
:1050D00008C8121F08C1002AFAD170477047002083
:1050E00001E001C1121F002AFBD17047F8B500246E
:1050F00006462246254617E02146142359430F460B
:105100007068891C415C11430091791C405CFFF779
:1051100059FE0099084204D17068C15D01208840A1
:1051200005430022641CE4B202480078A042E3D8A0
:105130002846F8BDA400002007480178002901D0C6
:10514000002106E0054919224968D201914201D3A4
:105150000421017070470000280900201009002078
:1051600004494879002802D0002048717047012086
:10517000FBE7000094000020704700000449887994
:10518000002802D00020887170470120FBE7000052
:10519000940000200449C879002802D00020C8717A
:1051A00070470120FBE7000094000020F8B5064698
:1051B000002400F005F905002ED0A80401270028DE
:1051C00010DB12E020461422716850430B5C3A4613
:1051D0009A402A4204D0001D0858002800D0804779
:1051E000641CE4B23078A042ECD8280414D5002422
:1051F0000FE020461422716850430B5C3A469A40F7
:105200002A4204D008300858002800D08047641C87
:10521000E4B23078A042ECD8F8BD000030B585B0DB
:105220006D46089C6970AA70074AD178491CD170F4
:105230002970029401931178491C11701422694657
:10524000FDF78CFC05B030BD9400002000B587B0A0
:105250001A4800901A4B0122902101A8FFF7DEFFA7
:10526000142201A91748FDF779FC17480090174B45
:105270000422A02101A8FFF7D1FF1248142201A99E
:105280001430FDF76BFC1248009000230822A02187
:1052900001A8FFF7C3FF0B48142201A92830FDF72E
:1052A0005DFC0C49074848600846103802780C2A13
:1052B00001D90C2202700A7007B000BD39510000FC
:1052C0006151000034090020795100007D51000037
:1052D00095510000A4000020152149020020FEF78E
:1052E000C3FCFDF763FF304800687D21C008C9009A
:1052F000FDF71EFCFEF7FEFD0120FEF7EFFD00208E
:10530000FEF7DAFD0120FEF7D7FDFFF765FBFDF79D
:10531000D9FDFDF761FEFDF745FCFEF7DFFBFFF76A
:1053200021F90120FFF73EF9FEF754FD01210F227C
:1053300009030120FDF7F0FC0120FEF7C9FC1B4822
:105340000024016803220902090A9207114301603F
:105350001749082008600120FEF77AF8FFF702FDE0
:10536000FEF7C2F8FEF7F6F81248134D0470AC6071
:10537000FFF76CFFFEF796FD2946A8600870000A4B
:1053800048700E48FFF7F0FAFDF7DEFDFEF74EFF1E
:10539000FFF77EF8FFF74EF8FFF7B2F8FEF766FF6B
:1053A000FFF7D8FCEDE70000AC00002000E400E0CF
:1053B00000E100E02809002010000020B8000020D3
:1053C00070B5214C0126217900250A31C9B221711D
:1053D000022902D32571667002E06178012931D17A
:1053E0006570FFF783FEA178002906D0012909D056
:1053F00002290FD0032925D121E0002822D0E06026
:10540000A6701FE0E168884202D10220A07019E076
:10541000A57017E0E168884205D00846A570012113
:105420004903A56009E0A168491CA160962909D338
:105430000321A560A1700121C903084370BDE16883
:105440008842E5D1002070BD940000200600FF09CD
:1054500001A101150026FF0009027508954081028F
:10546000150026FF000903750895409102C0000051
:105470001201000200000040D904020000010102F4
:105480000001000009022900010100803209040026
:10549000000203000000092110012101222200075F
:1054A00005830340000107050403400000000000DD
:1054B000040309040E0348004F004C00540045004B
:1054C0004B00000016035500530042002D00480019
:1054D000490044002000410050000000754D0000CC
:1054E000754D0000754D0000754D0000ED2E00005B
:1054F000754D0000794D0000794D0000794D000098
:10550000794D0000ED2F0000794D00001D2E0000A8
:10551000794D0000212E0000353000000000000011
:1055200000000B4000200B4000400B4000600B408F
:105530000000000000000000000000020201010164
:105540000000010000040008040002002000100018
:1055500008000040010101010101010101010001F8
:10556000010101000101010200100200001004000D
:1055700002000100008000014000800008000101DD
:105580000101010101010101010C010C0201000FE7
:105590000806070300000440000010000600000099
:1055A00020000600C455000010000020A8000000E4
:1055B000CE5000006C560000B8000020B80A000071
:1055C000DE500000000000000100000000000000AC
:1055D0000000000000000000000000000064000067
:1055E00000000000000000000000000000000000BB
:1055F000B0540000B4540000C45400000000000087
:10560000000000000000000000000000000000009A
:10561000000000000000000000000000000000008A
:10562000000000000000000000000000003A4C8074
:105630003A4C43CAC2EE0000000000000000000027
:105640000000000000000000000000FF000000005B
:10565000000000000000000000000000000000004A
:0C566000006CDC020000000001000000F3
:0400000500002AC10C
:00000001FF
