:020000040000FA
:10000000F80A0020C1000000F9000000FB00000019
:10001000FFFFFFFFFFFFFFFFFFFFFFFFFFFFFFFFF0
:10002000FFFFFFFFFFFFFFFFFFFFFFFFFD000000DF
:10003000FFFFFFFFFFFFFFFFFF000000B90D000003
:1000400003010000030100000301000003010000A0
:100050000301000003010000030100000301000090
:1000600003010000FFFFFFFF030100000301000088
:10007000030100000301000003010000FFFFFFFF78
:10008000FFFFFFFF49020000030100000301000021
:100090000301000003010000030100000301000050
:1000A000F50E000003010000030100000301000041
:1000B00003010000591600000301000003010000C5
:1000C0001048804710488047104800471048016991
:1000D000002910D1416900290DD1816900290AD177
:1000E000C169002907D1BFF34F8F0A490A48C86088
:1000F000BFF34F8FFEE77047FEE7FEE7FEE7FEE740
:10010000FEE7FEE7CD000000BD0D00001D01000070
:100110000003084000ED00E00400FA0503488546AE
:1001200000F032F800480047111F0000F80A0020D4
:1001300001688D464168084730B50B4601460020EE
:100140002022012409E00D46D5409D4205D31D46DD
:100150009540491B2546954040191546521E002DD5
:10016000F1DC30BD03460B439B0703D009E008C90F
:10017000121F08C0042AFAD203E00B780370401C57
:10018000491C521EF9D27047064C0125064E05E067
:10019000E36807CC2B430C3C98471034B442F7D3A8
:1001A000FFF7C0FFD8200000F8200000F0B5964609
:1001B0000A461349C000461800230025FF20984036
:1001C0002C46104216D00020012199408C46114641
:1001D000C1406746394206D087000F21B9400D4320
:1001E0007146B9400C43401C0828F0D33068A8433E
:1001F000204330600833361D082BDEDDF0BD0000E3
:100200002020024038B5044655202070881C0D4639
:100210006070002320461946425C491CD218C9B2BE
:10022000D3B20429F8D3D843401C20712A46214672
:10023000002000F009F9694608806019097801700A
:1002400069464978417038BD10B5064900204860BC
:1002500005484168491C41600121017000F06EFBB6
:1002600010BD000000600740280000200422002983
:10027000016801D0114300E09143016070470029FB
:10028000016802D00122114301E0490849000160E0
:100290007047C160704700214160016070470023D2
:1002A00003604360C26081607047F8B515460E4632
:1002B0000746002406E03119384600F007F8002808
:1002C00002D0641CAC42F6D32046F8BD10B50446FB
:1002D000636800202268934209D0A068805C08709F
:1002E0002068E168401CFFF727FF0120216010BD56
:1002F00070B50E460446C16840680025401CFFF7F3
:100300001BFF2068814208D06068A1680E54401C21
:10031000E168FFF711FF61600125284670BD416863
:100320000068814201D1012070470020704710B55C
:1003300001200321002280028903012300F070F8CC
:1003400010BD000070B5184D0446686B4607760F67
:1003500000F02EF815492060330001F0BDFD0814AF
:1003600005070714140E1114606000E06160296A2B
:100370006068052909D3400908E00120C003F3E7BC
:100380007D200002F0E70020EEE7C840A060A96AE7
:100390004903490F072902D0C840E06070BD03211E
:1003A000FFF7CAFEF9E700000080084000127A005B
:1003B0000C490868C869C20F4868400AC007C00FE6
:1003C0000ED00948002A0BD18869C00D0007000F24
:1003D00000D110208969044A4902890F5043C8405E
:1003E000704700000080084000127A001FB54109E4
:1003F0000A4A89008A1800212E2800D10221C0064D
:10040000C00E1268032383401A40C2405418684645
:10041000FFF798FF029804B0E04010BD3880084014
:10042000F0B5084F7C6AFD6A3E6B84438D4396436A
:10043000002B02D004430D4316437C62FD623E63F1
:10044000F0BD000000800840F0B59446002615E09D
:100450008B5D020A5A40140200230A4F08252246E7
:100460005A40120402D55B007B4000E05B00640050
:100470006D1EF4D10002434098B2761C6645E7D366
:10048000F0BD000021100000F0B59446002615E0F4
:100490008B5D020A5A40140200230A4F08252246A7
:1004A0005A40120402D55B007B4000E05B00640010
:1004B0006D1EF4D19AB200025040761C6645E7D317
:1004C00080B2F0BD2110000001218140014841604F
:1004D00081607047404002400121814002488161B3
:1004E000BFF34F8F704700004040024004498969C4
:1004F00001228240114201D0012070470020704744
:10050000404002400122054B82401868012902D078
:100510009043186070471043FBE7000040400240E2
:1005200010B50123084C8340012A02D0206998436A
:1005300006E06069002905D018436061206918430E
:10054000206110BD9843F8E74040024000B50349E0
:1005500008600820C86000F04DF800BD00000840A9
:1005600010B50A4B03218A00D418246AE44384504E
:10057000491EF8D5196BC907C917491C0161196BC8
:100580008907C917491C416110BD000000000840DF
:10059000034BD86019605A6014201861704700003E
:1005A0000000084010B5124910484A6902231A4356
:1005B0004A6114220A6104E00A691207920F032AB1
:1005C00001D0401EF8D28A698C699C438C619103EA
:1005D00001D5022010BD910701D5012010BD0028D2
:1005E00001D0002010BD032010BD0000FFFF0F0050
:1005F0000000084010B5124910484A6902231A4306
:100600004A6114220A6104E00A691207920F032A60
:1006100001D0401EF8D28A698C699C438C61910399
:1006200001D5022010BD910701D5012010BD002881
:1006300001D0002010BD032010BD0000FFFF0F00FF
:1006400000000840002A026801D00A4300E08A4303
:1006500002607047F0B5002425462346CE0706D039
:100660005E001746B7403C430327B7403D43490867
:100670005B1C102BF2D34169A943416141692143BD
:100680004161F0BD002A08D0012A09D082688A435E
:100690008260C2688A43C260704782680A43F7E793
:1006A000C2680A43C26082688A4382607047000061
:1006B00070B51549486AE52210434862032000F0EE
:1006C0009DFA124C0519012000F098FA00194519FD
:1006D000022000F093FA00194519002000F08EFA6C
:1006E00000194219002081000B78D21ACB781B0622
:1006F000D21A4B7889781B02D21A0904521A401C6C
:100700000428F0D3500870BD008008404E265700E2
:1007100070B50D46114900014418002021214902FD
:1007200001230246FFF77CFE227AE1882079FFF759
:100730003DFDA27BA189A07AFFF738FD29462068FC
:1007400000F00CFC01220021206800F051FC012285
:100750001146206800F04CFC70BD0000C82000006D
:10076000F8B5054613481349465D68000A310C5A2E
:1007700008461230475DB0002239085800903046D4
:1007800000F072FF3A4621463046FFF70FFD28463B
:1007900000F012F8214602220098FFF773FF21466D
:1007A00001220098FFF756FF214601220098FFF72B
:1007B00049FFF8BD6C200000044A4100515A0A3A32
:1007C000105C8000183A1058816270477620000053
:1007D000044A4100515A0A3A105C8000183A1058F5
:1007E0004162704776200000F8B51F4E306802283D
:1007F00038D01E4C00271E4D676060682918401CC9
:1008000060601C48FFF762FD60684028F5D36C8883
:10081000EF70AF70402216490020FFF715FE2978CF
:10082000502903D301224A3932602970C9B20829FC
:1008300001D8844204D046240E48FFF72CFD0CE07A
:100840000120C04300F06AFA2B780B4C9B00E35860
:100850006878AA68696898470446064821461038AF
:10086000FFF746FDF8BD0000140000203000002016
:10087000B8050020500100200C20000010B5112107
:1008800012480906016012498A68152312045B02A6
:10089000D21842604A6875235B040B3A1A4382609F
:1008A0000522D202C260C968442209010909016116
:1008B000811A0848FFF7F3FC064901222031084657
:1008C00092021038FFF7EBFC10BD0000A4050020D9
:1008D000800108404001002070B5054600F09EFFF1
:1008E00001246407002D01D00F4809E000F05CF9F5
:1008F000002816D000F06EF9002812D00A48401FD8
:1009000020600A480460002000F01EFD0848401ED8
:10091000FDD1BFF34F8F08490648C860BFF34F8F22
:10092000FEE7002070BD0000F5FAAA5580E100E066
:10093000801A06000400FA0500ED00E00648418830
:10094000002902D04188491E41808188002902D0B7
:100950008188491E8180704738000020F7B5002447
:100960007D2715460E46FF00321B09480099FFF708
:100970009CFC001984B2B44207D2384600F0C8F992
:1009800028466D1EADB20028EED12046FEBD000007
:10099000D80800203EB5012500246D02212149021E
:1009A000E80101232246FFF73BFD0622102100202B
:1009B000FFF7FCFB062220210020FFF7F7FB0022B7
:1009C00020211548FFF75EFE14492A464819FFF713
:1009D00066FC134D284600F09FFA4B20C0010090A2
:1009E000A815694688800C81CC804C81284600F08F
:1009F000B5FA01221146284600F0F2FA0122002140
:100A0000284600F0F5FA01221146284600F0F0FAD7
:100A10000449A80108603EBD00000B40D806002034
:100A20000000044000E100E0084A0749106004E0CB
:100A30001069C00501D5012070470846491E89B2DA
:100A40000028F5D170470000102700000000044086
:100A500030B50D460446002306E0E05CFFF7E4FFF6
:100A6000002803D05B1C9BB2AB42F6D3184630BDC6
:100A7000F8B520480A2700681F4C00261F4D0128A2
:100A800013D007E02878002810D0012818D00228B9
:100A90001ED02E70642201216846FFF75FFF0028F8
:100AA000F0D16888002800D12E70F8BD6846007823
:100AB0005528FAD120700120A86028706F80E9E7DE
:100AC00068460178A8682154401CA8600220F4E719
:100AD000FF20F530688068460178A8682154401CE2
:100AE000A86061788142D5D800F0A0F82E7064200B
:100AF000A880F8BD14000020400600203800002027
:100B000010B500F0CFF9012000F0ECF911210C48EC
:100B1000090601600B498A68152312045B02D2188A
:100B200042604A684B680A3A12040A3B1A438260E0
:100B30000522D202C260C9680161FFF72BFF10BD18
:100B40002C0600208001084001214907002814D00C
:100B50000B4808600B4C4F20A07005212046FFF782
:100B600051FB61782046FFF773FFBFF34F8F0749B2
:100B70000548C860BFF34F8FFEE70148401FE8E714
:100B8000F5FAAA558F0600200400FA0500ED00E0F2
:100B90000521C902401A01214902884201D20120DF
:100BA000704700207047000015214902086807229D
:100BB00052078018064A904205D24868401A7521AB
:100BC0008902884201D3002070470120704700004D
:100BD000014000000520C0020168481C09D0064BF6
:100BE000002003E01A58521C04D0001D8842F9D39B
:100BF00001207047002070470428000070B50025D0
:100C0000094C800020600120E06014202061FFF783
:100C1000C9FC002806D118202061FFF7C3FC00287A
:100C200000D1A568284670BD00000840FEB5224FDF
:100C3000224C0520F86000202546E0704F3D6A7880
:100C4000A8181E38417F007F0E0206432946002067
:100C5000921EFFF7F9FBA978502904D30222184B02
:100C600046391A60A9702946AD78462201230A2D1B
:100C700001D8864202D0A270E37014E0CE7804223C
:100C800001A8491D0096FFF76DFA0C490422463968
:100C900002A8FFF767FA0B4BA8001B583046029AD0
:100CA00001999847A070397B0448FFF7ABFA617847
:100CB0000248FFF7CDFEFEBD380000208F06002061
:100CC000140000202C2000000EB5E120400200900E
:100CD000FF200130694688800020C8800881488153
:100CE000FFF716FD0EBD0000F0B5084F7C68BD682B
:100CF000FE6884438D439643002B02D004430D438A
:100D000016437C60BD60FE60F0BD000000810840BD
:100D100018214843401EFDD27047000007490028B3
:100D200006D00128086906D04008400008617047D5
:100D300000208861704701221043F7E700E000E0DF
:100D400010B51B480068002831D000210C20FFF7A7
:100D5000D9FB184800F0C6F90446012807D1012242
:100D600011460C20FFF7DCFB0C20FFF7B5FB0C2035
:100D7000FFF7BCFB012802D0012C09D010E0012CA8
:100D80000ED10C4800F072FA012801D100F093FA5C
:100D9000002201210C20FFF7C3FB0C20FFF79CFB76
:100DA0000C20FFF791FB01210C20FFF7ABFB10BDDE
:100DB000100000206800002070470000F0B53449A2
:100DC0001020C8603349012008603348016B40247B
:100DD0002143016331498A68272AFCD1416A0322F1
:100DE00092029143416241680122D2021143416063
:100DF0008168C908C907FBD04168C908C900C91C76
:100E00004160416B4907490F0329FAD1244B196806
:100E1000C908C900491C19600025056241685E15B2
:100E2000B143416001689F153943016041681A155B
:100E30001143416081688908C907FBD0016BA14358
:100E400001630168B94301600321090681614168BA
:100E50003143416081684908C907FBD01968C90856
:100E6000C900891C196005624168C908C900491C8C
:100E70004160416B4907490F0129FAD118681021D7
:100E8000084318601868090208431860F0BD0000A4
:100E900000810840008308400080084000A106400F
:100EA0000002084010B5002001221204012301466F
:100EB000FFF7B6FA002000F015F8084C0649204666
:100EC000FFF7E7F901212046FFF7D0F90120044997
:100ED0004004086010BD00003F9C00000060074017
:100EE00000E100E010B501460148FFF7C8F910BD68
:100EF0000060074010B50648C168C90707D00169FE
:100F0000C90704D00068C1B20248FFF7F1F910BD6B
:100F100000000440D80800200021012310B59B07E1
:100F20000A46984200D18115094B984201D14315D8
:100F30001943084B984201D103151943064B9842B7
:100F400001D1C014014301231046FFF7CDFE10BDAF
:100F500000000440001000400010044070B504463A
:100F60000D46C8888988626808432989184B1A4049
:100F70001143084369890843606001208007844267
:100F800006D11820FFF732FA2968FFF7D5F860621A
:100F90001048844206D11A20FFF728FA2968FFF783
:100FA000CBF860620C48844206D11C20FFF71EFA81
:100FB0002968FFF7C1F860620848844206D11E2004
:100FC000FFF714FA2968FFF7B7F8606270BD0000F8
:100FD000FCE0FFFF0000044000100040001004404F
:100FE000002AC26801D00A4300E08A43C260704709
:100FF00010238B404168002A01D0194300E0994337
:101000004160704770B50B4C6168A0684022411880
:10101000042000F032FA05466168A06840184021BB
:1010200000F046FB606840198005800D6060FFF7A6
:10103000DBFB70BD500100200449816004498161DF
:10104000044941620449C16370470000B1100000C7
:10105000B91000005D1000000510000070B50446D6
:101060000088114988421EDAFF38A2281BD1E07897
:10107000E588012817D10D48FFF751F9002812D152
:1010800043210A48002202E083685A54491E4368FB
:101090008B42F9D980682562E061012020342071FB
:1010A0000248FFF7F8F870BD210900004001002058
:1010B00010B500F0B3FB10BDC2780146012320310A
:1010C000212A07D0222A04D1054AC26122220262C3
:1010D0000B717047C2681232C2610922F7E7000043
:1010E0007C1F00002030007D8007C00F704700008B
:1010F000F8B5044600F02CFA0646800707D5E16CE7
:10110000002901D0206D8847022000F0E9F825462B
:10111000F006203500280BDA102000F0E1F8A87C5A
:10112000022805D300F020FAA87CE8740320A874F4
:10113000700724D527468037B86800900020C04348
:101140002062002028746874297DFD2211402975D1
:101150000421A974A06300F003F900F00DFA002047
:10116000B96800F05CF90098006800F0D9F9616C8A
:10117000002901D0A06C8847042000F0B1F83007A6
:1011800006D500F0F9F9E87CA874082000F0A8F86A
:10119000F0052E4E3CD5002000F031F907468005C1
:1011A00009D5204600F03EFA204600F006FD710009
:1011B000002000F0EDF8F80606D5204600F0DCFC33
:1011C0001021002000F0E4F8B8071ED5022100200D
:1011D00000F0DEF8206A401C17D02879022814D1CC
:1011E00040220020E16900F048F9E1690918E16155
:1011F000216A081A206208D101202871A16A0029F9
:1012000003D0E06A88470020A062304600F068F80A
:10121000122700F09DF900F08BF90546401C14D010
:10122000284600F0ECF83842F3D01221284600F0AE
:10123000AFF83046A84000F053F8A8000019816EBE
:101240000029E6D028468847E3E7F8BD0001000002
:1012500010B505490222086032210A5480308068A6
:1012600000F07EF910BD0000480000202030807C96
:10127000032801D0002070470120704770B5044654
:1012800006462036307D2546C1078035C90FA8683F
:1012900000F07AF9B07C032804D1E968002901D074
:1012A00028698847E16B002904D0B07C062801D169
:1012B000206C884770BD10B500F05EF900F0BAF9F7
:1012C00010BD000004490160143141600349816090
:1012D0000421C16070470000A01F0000180000201A
:1012E000014988607047000000800A400C4910B531
:1012F0000846143881600B49C1607838FFF7E2FF77
:1013000007485838FFF798FE05489438FFF7A0FFC4
:101310000120054940070860012000F015F810BDC4
:10132000FC000020410D000000E100E00122054921
:10133000D2020128086802D0904308607047104329
:10134000FBE7000000800A4004490A1501280868EC
:1013500002D09043086070471043FBE700800A40CA
:1013600010B50021202001230A46FFF7BDFC10BD67
:1013700010B500F067FD016809221140016010BD41
:1013800010B500F05FFD016824221140016010BD1E
:1013900010B50C4600F056FD846010BD10B500F08D
:1013A00051FD006902498005800D401810BD000004
:1013B00000A00A4070B5054600F044FD04462846EA
:1013C00000F00AF821698905890D40180149401883
:1013D00070BD000000A00A4010B500F033FD0069A8
:1013E0000003800D10BD10B500F02CFD01690068F0
:1013F000C90001D5400700E08006C00F10BD10B540
:1014000000F020FD41688068084010BD10B50C4612
:1014100000F018FDC068E040C005C00D10BD70B5FB
:101420000C46054600F00EFDE90009194A68026104
:10143000896841600021C9438160284600F035F881
:1014400070BDF8B516460F46050011D00021FFF714
:10145000DDFF0446B04209D8002D28460AD0FFF728
:101460009DFFE11C8A08394600F0A6FC2046F8BD25
:101470001021ECE7FFF79EFFF3E7F8B515460E469F
:10148000074600F0DFFC04460020002D08D02A4665
:1014900031463846FFF7D5FF002801D1002D03D192
:1014A0002168102211402160F8BD10B500F0CAFC7F
:1014B000016819221140016010BD10B500F0C2FC96
:1014C0000421016010BD10B500F0BCFC402181601A
:1014D000026824219143016010BDF7B51446074608
:1014E000FFF77AFF0646384600F0ACFC05460021BF
:1014F0003846FFF78BFFB44201D8002801D0002006
:10150000FEBD3846FFF74AFF0146E01C82080198FD
:1015100000F052FCEC60022028602046FEBD000076
:1015200002494A6802434A607047000000800A404E
:10153000034607210A4618460832D040C00701D0AA
:1015400048B27047491E0029F4DC0020C0437047B0
:1015500002484168806808407047000000800A40E7
:1015600000B500F045F800BD024801680C221143A7
:101570000160704700800A4002480168021511406E
:101580000160704700800A40034600B513480168B7
:1015900001290CD100210160114801684A06114956
:1015A00006D5114A026081601868FFF7B9FF00BDD7
:1015B0000E4A026081600020FFF7B8FE1868FFF74E
:1015C000AFFF0020FFF7C0FEC8210020401C88426A
:1015D000FCD30120FFF7B8FE00BD00004C00002046
:1015E00000800A40FFFFFFFF0C0400000C0C00000D
:1015F0000749016007494160074981600749C161A6
:1016000000210162064941620221816270470000A7
:101610001D110000080001801202000088000193E3
:10162000C800018402490A68026049684160704745
:1016300000A00A400248016820221143016070475F
:1016400000800A4003490A688B151A430A60086142
:101650007047000000800A4010B50248FFF748FDBF
:1016600010BD0000680000201CB50022009201217E
:101670006B460192195418784904C007C00B88437F
:101680005978C907890B084301218904884399784F
:10169000C907490B08430121C9048843D9780123AC
:1016A000C907090B084301218903FEF7B9FE1CBDD8
:1016B000FEB50446C91C8E085148514900791039BD
:1016C000002820D000274E4D1AE0B80021582A6883
:1016D000514021504A48022210380088484980B2BF
:1016E000FEF7D2FE00904648022210380068A91C7E
:1016F000000CFEF7C9FE0104009808187F1C286042
:10170000B742E2D379E0E0690D4648604868810A53
:101710003C2001406158A960A968090D0140615849
:10172000E9606968490C01406158A960A968C90C61
:1017300001406058E860A868324F2860796A3248F2
:101740004160396B8160786AE52108437862386BC3
:101750004021084338632D480090411E009101D379
:101760000846FAE72A4880682A494018806D000C2C
:1017700000040090FEF79CFF0190234841687962C5
:1017800080683863002133E0880084462058009A3E
:10179000EB685A40019B42409A4218D10022D2681D
:1017A0006B684240AF687B405A406A60009A1A4BAF
:1017B0005040134A1060604620581B685840AB6880
:1017C0006F687B405840A860012010710FE0124AFA
:1017D000AB68126842406F687B405A40AA600022A2
:1017E000D26850406A68AB685A4050406860491CF3
:1017F000B142C9D30020009001900120FEBD00003D
:101800006000002000800840E808002088130000E5
:1018100000A106400101084080000020034900208B
:1018200008710860103908607047000060000020EF
:1018300010B580B2FEF708FE044601460448FEF7E4
:1018400057FD210A0248FEF753FD4F2010BD00004E
:101850004001002070B515460A2803D00520C002BB
:10186000814201D2462070BD0C4605E02046FEF7BD
:101870006DFEFF34FF340234AC42F7D94F2070BD07
:101880000020FFF761FDFEE7F7B588B000270C46A2
:101890002E4D3E4668460697FEF762FE04980128E4
:1018A00000D10690089801284BD10698002814D042
:1018B0000A98001B401C03E0E159491C39D13F1D27
:1018C000B842F9D80898012807D03AE02146042008
:1018D0002A68FEF75DFE241D2D1D0A988442F5D965
:1018E0002FE01B48844201D9002000E020680899BD
:1018F000002918D003291AD0069900290BD00521F8
:10190000C9020122611A9202914204D3114961185D
:10191000502900D30020104AB1001268761C5050A4
:10192000102E09D00BE02968814202D107E0401C4B
:1019300005D046200BB0F0BD002600F019F8241D9C
:101940002D1D0A988442CCD94F20F3E7C40500200E
:10195000FC03F01F000010E03000002010B5402212
:1019600002490320FFF7B9FD4F2010BDA405002058
:101970000548102181614021C16102210161816915
:10198000C906FCD57047000040800A404F207047D0
:1019900007B5009880B2FEF757FD084A0090064947
:1019A000D0686B4609181B780B706B465B784B70E0
:1019B000801CD0604F200EBD8F0600203800002014
:1019C0004F20704770B515460A2803D00520C00285
:1019D000814204D208490320C870462070BD0C46DD
:1019E00005E02046FEF7B2FDFF34FF340234AC427E
:1019F000F7D94F2070BD00008F060020054C4F2006
:101A0000A07005212046FEF7FDFB61782046FFF718
:101A10001FF8FEE78F060020F0B589B0064617468E
:101A20000C46374D01A8FEF79BFD012E09D1002081
:101A3000391B491C03E02258521C39D1001D814238
:101A4000F9D8002E01D0012E56D12046FFF7A0F87C
:101A5000012E0FD050E00422294607A8FEF782FB92
:101A6000284804220799C260046041601421016182
:101A7000241D2D1DBC42EED93EE02348844201D9ED
:101A8000002000E020680090002E05D0032E0DD02D
:101A90000598012813D01FE00422294607A8FEF765
:101AA00061FB07990098884202D123E0401C21D0B5
:101AB000134904204231C870462009B0F0BD05200A
:101AC000C0020121201A4902884205D30F4820187C
:101AD000502801D3002000900D490948C9684230C0
:101AE000401804226946FEF73DFB09480849C068D2
:101AF000001DC860241D2D1DBC42BED94F20DCE74F
:101B00004D06002000000840FC03F01F000010E01C
:101B1000380000200549044BC868F5221A54401CBF
:101B2000C8604F20704700008F060020380000205A
:101B300070B50F4C4F20A07021460C226339601DF8
:101B4000FEF710FB11212046FEF75CFB6178204672
:101B5000FEF77EFF074D2146E86808222018573916
:101B6000FEF700FBE8680830E8604F2070BD000019
:101B70008F0600203800002070B504460020FFF7D3
:101B80002BFC0546206A411C16D0214620310A79DB
:101B9000012A11D1A84202D3401B206204E005466D
:101BA00000202062022008712A460020E169FFF728
:101BB00094FCE0694019E06170BD70B505460021F4
:101BC000203529710446016200786021084004D064
:101BD000202806D040280BD105E0204600F03CF834
:101BE00006E0216E00E0616E002901D020468847A2
:101BF0002879012805D002280CD00020FFF75DFCD1
:101C000070BDE088216A814200DD20622046FFF736
:101C1000B3FF70BD002211461046FFF75EFC70BD99
:101C200070B504460020254620356076002909D08D
:101C3000012908D002290ED120790007000FFFF7F3
:101C4000D2FB00E0287D207620461830E06102209B
:101C500020620120287170BD70B5018805231B0228
:101C60000446CA1A01252034994245D01BDC3D4B5D
:101C7000CA1A994239D009DC802932D0812932D060
:101C8000822902D10221FFF7CBFF70BD022A2ED09C
:101C9000FF3AFF3A921E2CD0022AF6D101220221ED
:101CA00000F062F870BD01239B02D11A9A4246D01F
:101CB0000DDCFF3A813A25D0012A3ED0FF3AFF3AA7
:101CC000022AEFD1014630310562C16133E0FF39AC
:101CD000823944D08029E5D1816D0029E2D088473E
:101CE00070BD0021CFE70121CDE7002202E00022F4
:101CF000D5E701220021D3E78078FFF7A3FC257107
:101D000005202AE0C17801290FD002290FD003292C
:101D1000E6D1817842698A42E2D902698900515844
:101D20000029DDD0C161097804E08168FAE7C16863
:101D3000C16149880162257170BD416DCDE781782F
:101D40002174257101250646803668B2B168FFF717
:101D500066FB6D1C082DF8D30620A07470BDC16D04
:101D6000BBE700000001000070B5054601262035E4
:101D700000290CD0022909D101790C07240F04D0C5
:101D8000002A0FD02046FFF79EFB2E7170BD807891
:101D90000128FBD1287DFD210840D107890F084388
:101DA0002875F2E7806B0028EFD12046FFF7E8FAAC
:101DB0002046FFF7DDFAE8E730B5830708D00024B6
:101DC0008B0707D00023002C06D0002B26D032E052
:101DD0000124F5E70123F6E7002B01D000231AE0E8
:101DE000521E1AD403780B7043784B7083788B7033
:101DF000C378CB70001D091DF2E7457804782D02E9
:101E00002C1985782D042C19C578001D2D062C1948
:101E10009D004C515B1C9342EFD330BD521EFCD44D
:101E20009300C3580B701C0A4C701C0C8C701B0E5A
:101E3000CB70091DF2E7521EEFD49300C458CC506A
:101E4000F9E7000014214843014940187047000099
:101E500014800A4010B5012805D0022809D00328B3
:101E600012D0462010BD012901D0002004E000203E
:101E700006E0012903D00120FEF79EFC02E00120CC
:101E8000FEF7A6FC4F2010BD012901D00220F3E788
:101E90000220F5E70E4910B50B463433002803D075
:101EA000012809D0462010BD0A781A54401C491C4C
:101EB0003428F9D34F2010BD064A00201C58116861
:101EC000001D10C111603428F8D3FFF751FDF1E770
:101ED000C40500203000002030B47446641E25780C
:101EE000641CAB4200D21D46635D5B00E31830BC4E
:101EF000184702E008C8121F08C1002AFAD170472B
:101F00007047002001E001C1121F002AFBD1704779
:101F1000FEF70DFAFEF7D8FE14480068C0070DD092
:101F20000120400700681249884207D0FEF73CFEB6
:101F3000012803D115204002FEF7FAF80D490020D0
:101F40004860FEF79BFCFEF7DBFD0020FEF708FC77
:101F50000120FEF705FC0220FEF702FCFFF7C6F9A0
:101F60000548FFF78BF9FEF783FDF9E7000108400C
:101F7000F5FAAA5510000020680000200600FF09AD
:101F800001A101150026FF00090275089540810294
:101F9000150026FF000903750895409102C0000056
:101FA0001201000200000040D904010000010102FA
:101FB000000100000902290001010080320904002B
:101FC0000002030000000921100121012222000764
:101FD00005830340000107050403400000000000E2
:101FE000040309040E0348004F004C005400450050
:101FF0004B00000018035500530042002D0048001C
:1020000049004400200049004100500055180000DC
:1020100089180000311800005D190000D90800007F
:1020200081180000551E0000951E0000C519000013
:10203000191A000091190000311B0000490B000023
:10204000FD190000C11900008D190000151B0000CA
:102050008D19000000000B4000200B4000400B4099
:1020600000600B40000000000000000000000002C3
:102070000201010100000100000400080400020048
:1020800020001000080000400101010101010101D0
:102090000101000101010100010101020010020023
:1020A00000100400020001000080000140008000D8
:1020B000080001010101010101010101010C010CF4
:1020C0000201000F08060703000004400000100092
:1020D0000600000020000600F8200000100000208C
:1020E00058000000F21E000050210000680000208F
:1020F000900A0000021F0000010000000000000024
:10210000E01F0000E41F0000F41F000000000000BA
:10211000000000000000000088A00A40000000004D
:1021200000000000000000000000000000000000AF
:10213000000000000100000000000000000000009E
:10214000000000000000000000000000000000008F
:04000005000000C136
:00000001FF
